:020000040000FA
:10000000000000EB240000EB2C008FE2000C90E8D5
:1000100000A08AE000B08BE001704AE20B005AE1D8
:100020000000001A1C0000EB0F00BAE818E04FE2D5
:10003000010013E303F0471013FF2FE1000200005B
:10004000100200000030B0E30040B0E30050B0E325
:100050000060B0E3102052E27800A128FCFFFF8A84
:10006000822EB0E13000A128003081451EFF2FE133
:1000700001C08FE21CFF2FE11FB5059886460FBC1B
:10008000009C02B07047000001C08FE21CFF2FE10E
:1000900030B47546AE4630BC704700001A0000EB25
:1000A0000210A0E1F1FFFFEB1CC09FE50FC08CE048
:1000B00001001CE30DE08F120FE0A0011CFF2FE1F7
:1000C00001C08FE21CFF2FE100F050F80801000092
:1000D0007847C04603002DE9EAFFFFEB0300BDE8C7
:1000E000270000EB0C009FE50C109FE504209FE526
:1000F00008309FE51EFF2FE16000004060040040D3
:100100006000004070477047704700000E50A0E14B
:10011000180000EB05E0A0E10050B0E10D10A0E1F7
:100120000A30A0E10700C0E300D0A0E160D08DE27A
:1001300020402DE9EAFFFFEB2040BDE80060A0E38E
:100140000070A0E30080A0E300B0A0E30710C1E3CB
:1001500005C0A0E1C009ACE8C009ACE8C009ACE842
:10016000C009ACE801D0A0E11EFF2FE10400C046A9
:10017000C0462000FFF7ACFF00009FE51EFF2FE107
:100180000000004001C08FE21CFF2FE10149182050
:10019000ABDFFEE7260002001EFF2FE10010A0E308
:1001A000000000EA011081E2802080E0802362E00C
:1001B000820151E1FAFFFFBA1EFF2FE10000A0E328
:1001C0006C109FE5000081E5010941E2080090E51F
:1001D000010880E3011941E2080081E50100A0E186
:1001E000080090E5010CC0E3080081E50F0000EA7B
:1001F00040009FE5000090E5010C00E2000050E3A4
:100200000500000A0108A0E328109FE5040081E52D
:100210000A00A0E3E0FFFFEB040000EA0108A0E30E
:1002200010109FE50C0081E50A00A0E3DAFFFFEB68
:10023000EEFFFFEA00C002E0008002E04C02000096
:0C02400000000040E80400004400000042
:0400000500000000F7
:00000001FF
